:100000000C9498000C9403090C94DC080C94C00028
:100010000C94C0000C94C0000C94C0000C94C00060
:100020000C94C0000C94C0000C94C0000C94C00050
:100030000C94C0000C94C0000C94C0000C94C00040
:100040000C9492080C94C0000C9460080C943A082C
:100050000C94C0000C94C0000C94C0000C94C00020
:100060000C94C0000C94C000000000002400270085
:100070002A0000000000250028002B0000000000DE
:1000800023002600290004040404040404040202DA
:100090000202020203030303030301020408102007
:1000A0004080010204081020010204081020000012
:1000B0000008000201000003040700000000000027
:1000C00000005E01011F01030301008A02010A0111
:1000D0000202010064001E47040B0906007C0101B6
:1000E000060103030100F401060E0102020100C231
:1000F00001170101020201019600023E01060601FC
:1001000000C80003820710031000C8008207100710
:100110001003016D01120103010103010E0124010D
:1001200001020201014001240101020201012A0928
:1001300011241FBECFEFD8E0DEBFCDBF11E0A0E09D
:10014000B1E0EEECFCE102C005900D92A233B107E4
:10015000D9F722E0A2E3B1E001C01D92AC38B207AA
:10016000E1F710E0C8E9D0E004C02197FE010E9449
:100170005F0EC739D107C9F70E9481090C94650E3B
:100180000C940000FC01538D448D252F30E0842F0A
:1001900090E0821B930B541710F0CF9608950197AF
:1001A0000895FC01918D828D981761F0A28DAE0F9C
:1001B000BF2FB11D5D968C91928D9F5F9F73928F23
:1001C00090E008958FEF9FEF0895FC01918D828D4F
:1001D000981731F0828DE80FF11D858D90E008951C
:1001E0008FEF9FEF0895FC01918D228D892F90E074
:1001F000805C9F4F821B91098F7399270895FC01A2
:10020000A48DA80FB92FB11DA35ABF4F2C91848D77
:1002100090E001968F739927848FA689B7892C93D4
:10022000A089B1898C91837080648C93938D848D27
:10023000981306C00288F389E02D80818F7D80832A
:100240000895EF92FF920F931F93CF93DF93EC01EA
:1002500081E0888F9B8D8C8D98131AC0E889F9896D
:10026000808185FF15C09FB7F894EE89FF89608370
:10027000E889F98980818370806480839FBF81E0F1
:1002800090E0DF91CF911F910F91FF90EF90089533
:10029000F62E0B8D10E00F5F1F4F0F731127E02E0E
:1002A0008C8D8E110CC00FB607FCFACFE889F98946
:1002B000808185FFF5CFCE010E94FF00F1CFEB8D4D
:1002C000EC0FFD2FF11DE35AFF4FF0829FB7F8941A
:1002D0000B8FEA89FB8980818062CFCFCF93DF9338
:1002E000EC01888D8823B9F0AA89BB89E889F9894E
:1002F0008C9185FD03C0808186FD0DC00FB607FC83
:10030000F7CF8C9185FFF2CF808185FFEDCFCE01B5
:100310000E94FF00E9CFDF91CF9108958CED91E02D
:100320000E94F30021E0892B09F420E0822F089538
:1003300080E090E0892B29F00E948E0181110C94BD
:1003400000000895AF92BF92CF92DF92EF92FF929A
:100350000F931F93CF93DF936C017B018B01040FED
:10036000151FEB015E01AE18BF08C017D10759F089
:100370006991D601ED91FC910190F081E02DC601CB
:100380000995892B79F7C501DF91CF911F910F91C5
:10039000FF90EF90DF90CF90BF90AF9008958330A3
:1003A00081F028F4813099F08230A9F008958730E7
:1003B000A9F08830C9F08430B1F4809180008F7D3D
:1003C00003C0809180008F7780938000089584B56A
:1003D0008F7784BD089584B58F7DFBCF8091B00069
:1003E0008F778093B00008958091B0008F7DF9CF12
:1003F000CF93DF93282F30E0F901E255FF4F84912E
:10040000F901E656FF4FD491F901EA57FF4FC49125
:10041000CC23A1F081110E94CF01EC2FF0E0EE0F70
:10042000FF1FE458FF4FA591B491EC91ED2381E0BB
:1004300090E009F480E0DF91CF91089580E090E0B2
:10044000FACF1F93CF93DF93282F30E0F901E255C5
:10045000FF4F8491F901E656FF4FD491F901EA5715
:10046000FF4FC491CC23A9F0162F81110E94CF0118
:10047000EC2FF0E0EE0FFF1FEE58FF4FA591B49167
:100480008FB7F894EC91111108C0D095DE23DC935E
:100490008FBFDF91CF911F910895DE2BF8CFCF93BF
:1004A000DF9390E0FC01E656FF4F24918A579F4F5F
:1004B000FC0184918823D1F090E0880F991FFC0102
:1004C000E859FF4FA591B491FC01EE58FF4FC5913B
:1004D000D49161110EC09FB7F8948C91E22FE095F2
:1004E0008E238C932881E223E8839FBFDF91CF91F5
:1004F00008958FB7F894EC91E22BEC938FBFF6CF71
:100500008E50806480937C0080917A008064809318
:100510007A0080917A0086FDFCCF809178009091DE
:10052000790008952FB7F8946091CB017091CC01B8
:100530008091CD019091CE012FBF089508958091B3
:10054000790290917A02A0917B02B0917C02992766
:10055000AA27BB278093D8019093D901A093DA01F1
:10056000B093DB018C339105A105B105E9F0803C26
:100570009105A105B105C1F080339105A105B10533
:1005800099F0803F9105A105B10571F08C3091057E
:10059000A105B10549F08C3F9105A105B10521F0F8
:1005A0000397A105B10551F41092790210927A02D5
:1005B00010927B0210927C0281E0089510927902E1
:1005C00010927A0210927B0210927C0280E00895D1
:1005D00083E10E948002853B91053CF080E10E940E
:1005E000800221E0853B91050CF420E0822F0895E4
:1005F00060E087E00E94210260E088E00E94210222
:100600001092B3001092B40008950F931F93CF93EC
:10061000DF938B01EA0110920E0160E00797E9F485
:1006200088E00E94210261E087E00E9421020B30F5
:100630001105C9F41092B3002FEF2C9FC0012D9F1C
:10064000900D112464E670E00E94290E6093B400BE
:10065000DF91CF911F910F91089587E00E942102B1
:1006600061E088E0E2CF0330110591F71092B40009
:100670002FEF2C9FC0012D9F900D112464E670E098
:100680000E94290E6093B300E3CFAC0163E070E0F9
:1006900088E090E00C940503CF92DF92EF92FF92F6
:1006A0000E9492020E9492020E94E802811144C0BC
:1006B0008AE00E94F8010197E1F48DE00E94F801C0
:1006C0000197B9F442E650E06BE070E088E090E01A
:1006D0000E9405038DE00E94F801019709F0A1C076
:1006E0000E94E802811128C00E949F02882391F392
:1006F00023C00E9492020E9492020E94E80281118D
:100700001BC089E00E94F801019751F68CE00E941D
:10071000F801019729F682E690E00E9445038CE0FB
:100720000E94F801019769F40E94E802811104C057
:100730000E949F02882399F3FF90EF90DF90CF9063
:1007400008950E94F80289E00E94F801019709F5D6
:100750000E9492026B017C010E9492026C197D0939
:100760008E099F09683873418105910590F489E0ED
:100770000E94F801019769F40E949F028111DCCF69
:1007800042E650E063E070E087E090E00E940503FD
:10079000E3CF0E94F80289E00E94F8010197C1F4BA
:1007A00042E650E06BE070E088E090E00E940503D4
:1007B0008DE00E94F801019749F40E94E80281113E
:1007C000BBCF0E949F02882399F3B6CF0E94F80204
:1007D00089E00E94F801019709F50E9492026B01DD
:1007E0007C010E9492026C197D098E099F0968386C
:1007F00073418105910590F489E00E94F801019709
:1008000069F40E949F02811197CF42E650E063E0B5
:1008100070E087E090E00E940503E3CF0E94F802B9
:1008200070CF0E94F8028AE00E94F801019709F552
:100830000E9492026B017C010E9492026C197D0958
:100840008E099F09683873418105910590F48AE00B
:100850000E94F801019769F40E949F0281116CCFF8
:1008600042E650E06BE070E087E090E00E94050314
:10087000E3CF0E94F8028AE00E94F8010197A1F4F8
:1008800082E690E00E9445038CE00E94F801019707
:1008900049F40E94E80281114FCF0E949F028823F1
:1008A00099F34ACF0E94F8028AE00E94F80101976A
:1008B00009F50E9492026B017C010E9492026C1960
:1008C0007D098E099F09683873418105910590F46F
:1008D0008AE00E94F801019769F40E949F02811149
:1008E0002BCF42E650E06BE070E087E090E00E94A2
:1008F0000503E3CF0E94F802DBCE2F923F924F9286
:100900005F926F927F928F929F92AF92BF92CF929F
:10091000DF92EF92FF920F931F93CF93DF93CDB7A8
:10092000DEB765970FB6F894DEBF0FBECDBF9FB799
:10093000F8948090C6019090C701A090C801B09033
:10094000C90186B5A89B07C08F3F29F02FEF821AF7
:10095000920AA20AB20A9FBFBA2CA92C982C88240A
:10096000880E911CA11CB11C82E0880C991CAA1C49
:10097000BB1C8A95D1F78091C2019091C3012401DB
:10098000481A590A4DEC441640E1540608F4E0C0F8
:100990008091C0019091C101009789F020913A01A6
:1009A00030913B01D201A21BB30B9D01B7FF03C0E5
:1009B000319521953109283C31050CF0C5C00196CF
:1009C0009093C1018093C001029709F0BDC012EC61
:1009D000612E10E0712E01E010E02090380130907F
:1009E00039013B862A8649E050E0B301CE010196E9
:1009F0000E94C50C8B816C81681708F4682F70E029
:100A000080913A0190913B010E94150E9B0140910B
:100A10000F0150911001649FC001659F900D749F5C
:100A2000900D112464E670E00E94150E898541E066
:100A300050E0882311F042E050E08D81829FD00188
:100A4000839FB00D1124BD87AC878E81829FF001FA
:100A5000839FF00D1124FF87EE878F81829F100105
:100A6000839F300C1124398A288A8885829FD0017F
:100A7000839FB00D1124BB8BAA8BFA01EE0FFF1FD1
:100A8000E65CFE4FC12CD12C76018A859B850197AF
:100A90009D8B8C8BAC89BD894A175B0708F041C0E0
:100AA000CC0CDD1CEE1CFF1C80819181DC012C84B0
:100AB0003D84A219B309B7FF03C0B195A195B1094F
:100AC000A617B70770F4A281B3812E843F84A219C0
:100AD000B309B7FF03C0B195A195B109A617B70730
:100AE000E0F0A889B9898A1B9B0B97FF03C09195F9
:100AF0008195910986179707D0F4828193812A887E
:100B00003B888219930997FF03C0919581959109BC
:100B10008617970760F46894C0F84E5F5F4F34966D
:100B2000B9CF4A855B854830510508F053C00F5F47
:100B30001F4F59E0650E711C0D30110509F04DCFA6
:100B40001092C1011092C001109239011092380127
:100B500080913801909139018334910540F01092D1
:100B60003901109238011092C1011092C001809198
:100B70003801909139019C012F5F3F4F309339012B
:100B800020933801880F991FFC01E65CFE4F5182CB
:100B900040828092C2019092C301A092C401B0929F
:100BA000C50165960FB6F894DEBF0FBECDBFDF91CD
:100BB000CF911F910F91FF90EF90DF90CF90BF905A
:100BC000AF909F908F907F906F905F904F903F90ED
:100BD0002F900895C0927902D0927A02E0927B021F
:100BE000F0927C022C883D88369427943092D00174
:100BF0002092CF01309337012093360110933501B5
:100C0000009334019DCFFC0101900020E9F731975A
:100C1000AF01481B590BBC018CED91E00C94A20173
:100C20002F923F924F925F926F927F928F929F92FC
:100C3000AF92BF92CF92DF92EF92FF920F931F93EA
:100C4000CF93DF9383E10E9480021C0181E10E9427
:100C500080022C0180E10E9480025C0182E10E94FE
:100C600080024C010E949F02811172C1C0910A0151
:100C7000D0910B01809104019091050120913301E5
:100C80006C01222309F462C097FF03C02FEFC21A40
:100C9000D20AD594C794CC0EDD1E97FD019695958A
:100CA0008795C81BD90BE0900C01F0900D010091C5
:100CB000020110910301809132013801882309F467
:100CC00048C017FF03C08FEF681A780A75946794BD
:100CD0006E0C7F1CC80117FD019695958795E81A43
:100CE000F90A8A189B0842185308461457040CF056
:100CF000C1C0E414F5040CF0BDC01092320160E0F4
:100D000087E00E9421028C149D040CF405C181E04F
:100D1000809333018C169D06B4F58CE00E94F80197
:100D2000892BE1F4DF91CF911F910F91FF90EF900C
:100D3000DF90CF90BF90AF909F908F907F906F90FB
:100D40005F904F903F902F900C94F802CC0EDD1ED8
:100D5000A8CF6E0C7F1CE01AF10AC3CF809100016E
:100D6000909101012091040130910501C21BD30B28
:100D70008C169D061CF5863491052CF401969093F3
:100D8000010180930001C814D904ECF080910001A6
:100D900090910101DF91CF911F910F91FF90EF9002
:100DA000DF90CF90BF90AF909F908F907F906F908B
:100DB0005F904F903F902F900C94450384329105A3
:100DC00014F30197DCCF8DE00E94F801892B09F420
:100DD000A9CF4091000150910101809104019091AF
:100DE0000501C80ED91EC814D9040CF546345105A6
:100DF00034F44F5F5F4F50930101409300016BE06B
:100E000070E088E090E0DF91CF911F910F91FF900B
:100E1000EF90DF90CF90BF90AF909F908F907F909A
:100E20006F905F904F903F902F900C940503443249
:100E300051052CF341505109DECF86E490E09093A8
:100E40000101809300012EC0873491050CF445C048
:100E500001973FC0473451050CF45BC04150510924
:100E600054C0409100015091010163E070E087E0BF
:100E700090E0C9CF8C149D040CF049CFC815D9055A
:100E80000CF045CF1092330160E088E00E9421020F
:100E900081E08093320180910001909101018634BC
:100EA00091055CF24E145F04C4F489E00E94F801DD
:100EB000892B09F437CF8091000190910101E01A4C
:100EC000F10A4E145F040CF0BFCF823691052CF46A
:100ED0000A969093010180930001641475040CF646
:100EE0008AE00E94F801892B09F41CCF409100018F
:100EF00050910101060D171D041515050CF0AACF20
:100F00004236510534F4465F5F4F509301014093E0
:100F100000016BE070E0ABCFC815D9050CF0F7CE3F
:100F20001092330160E088E0DF91CF911F910F9123
:100F3000FF90EF90DF90CF90BF90AF909F908F90F9
:100F40007F906F905F904F903F902F900C94210274
:100F5000DF91CF911F910F91FF90EF90DF90CF9095
:100F6000BF90AF909F908F907F906F905F904F90C9
:100F70003F902F900895CF92DF92EF92FF920F93C0
:100F80001F93CF93DF9381E10E9480028C0183E164
:100F90000E948002081B190B10930D0100930C0195
:100FA00082E10E948002EC0180E10E948002C81B65
:100FB000D90BD0930B01C0930A0183E10E948002F8
:100FC000EC0182E10E948002BE01680F791F072EAA
:100FD000000C880B990B0E941C0D20E030E040E0D3
:100FE0005FE30E94800D0E94E40C072E000C880B2A
:100FF000990B0E941C0D6B017C012AE037ED43EA3E
:101000005CE30E94800D0E94E40C709305016093E4
:101010000401709303016093020120E030E040E09E
:101020005FE3C701B6010E94800D0E94E40C70933B
:10103000D2016093D101602F90E080E00E94D60C35
:1010400060910D0181E090E00E94D60C60910A0150
:1010500082E090E00E94D60C60910B0183E090E06A
:10106000DF91CF911F910F91FF90EF90DF90CF9084
:101070000C94D60C1F920F920FB60F9211242F933F
:101080003F934F935F936F937F938F939F93AF9310
:10109000BF93EF93FF938CED91E00E94FF00FF91CF
:1010A000EF91BF91AF919F918F917F916F915F91E0
:1010B0004F913F912F910F900FBE0F901F90189559
:1010C0001F920F920FB60F9211242F938F939F931D
:1010D000EF93FF93E091EC01F091ED018081E091BD
:1010E000F201F091F30182FD1BC090818091F50126
:1010F0008F5F8F732091F601821741F0E091F50127
:10110000F0E0E452FE4F958F8093F501FF91EF914F
:101110009F918F912F910F900FBE0F901F90189558
:101120008081F4CF1F920F920FB60F9211242F934C
:101130003F938F939F93AF93BF938091CB019091F7
:10114000CC01A091CD01B091CE013091CA0123E034
:10115000230F2D3758F50196A11DB11D2093CA010B
:101160008093CB019093CC01A093CD01B093CE019D
:101170008091C6019091C701A091C801B091C901A9
:101180000196A11DB11D8093C6019093C701A09344
:10119000C801B093C901BF91AF919F918F913F91C9
:1011A0002F910F900FBE0F901F90189526E8230FD8
:1011B0000296A11DB11DD2CF1F920F920FB60F92B2
:1011C00011242F933F934F935F936F937F938F934C
:1011D0009F93AF93BF93EF93FF93E0910801F0913A
:1011E00009010995FF91EF91BF91AF919F918F9167
:1011F0007F916F915F914F913F912F910F900FBE13
:101200000F901F9018951F920F920FB60F921124F6
:101210002F933F934F935F936F937F938F939F93FE
:10122000AF93BF93EF93FF93E0910601F091070115
:101230000995FF91EF91BF91AF919F918F917F9110
:101240006F915F914F913F912F910F900FBE0F9033
:101250001F9018950F931F93CF93DF93ECEDF1E060
:101260001382128288EE93E0A0E0B0E0848395833D
:10127000A683B78385E191E09183808385EC90E03C
:101280009587848784EC90E09787868780EC90E050
:10129000918B808B81EC90E0938B828B82EC90E041
:1012A000958B848B86EC90E0978B868B118E128EBB
:1012B000138E148ECDE7D2E00FEF1FEF1B830A834E
:1012C0008AE090E09D838C8349E050E062EC70E01E
:1012D00083E892E00E94C50C198308838CE390E0B8
:1012E0009093100180930F011092790210927A026C
:1012F00010927B0210927C02DF91CF911F910F918F
:101300000895CF93DF93CDB7DEB7A1970FB6F894CA
:10131000DEBF0FBECDBF789484B5826084BD84B536
:10132000816084BD85B5826085BD85B5816085BDE0
:1013300080916E00816080936E0010928100809198
:101340008100826080938100809181008160809320
:101350008100809180008160809380008091B10045
:1013600084608093B1008091B00081608093B00070
:1013700080917A00846080937A0080917A00826004
:1013800080937A0080917A00816080937A008091C6
:101390007A00806880937A001092C1008FEF87B93D
:1013A00083EA8093B00081E08093B1001092B30093
:1013B0001092B4000E94920268537F4F8F4F9F4F4C
:1013C0006093D4017093D5018093D6019093D70197
:1013D00061E08BE00E944F0261E083E00E944F02D7
:1013E00061E087E00E944F0261E088E00E944F02C6
:1013F00060E087E00E94210260E088E00E94210214
:1014000060E083E10E944F0260E081E10E944F02B0
:1014100060E082E10E944F0260E080E10E944F02A2
:1014200060E083E10E944F0260E08CE00E944F0286
:1014300060E08DE00E944F0260E08AE00E944F026F
:1014400060E089E00E944F0290E080E00E94CE0CB4
:10145000982E81E090E00E94CE0C90E0982F882793
:10146000890D911D90930D0180930C0182E090E015
:101470000E94CE0C982E83E090E00E94CE0C90E06B
:10148000982F8827890D911D90930B0180930A0155
:1014900010927E0210927D021092790210927A02CE
:1014A00010927B0210927C021092D0011092CF0118
:1014B0008DE794E090930701809306018091690085
:1014C0008C7F816080936900E89A332433940E9472
:1014D00092020E9492028091790290917A02A091E8
:1014E0007B02B0917C02892B8A2B8B2B09F401C2E1
:1014F0004090790250907A0260907B0270907C025A
:101500005524662477244092D8015092D9016092E4
:10151000DA017092DB010E94920268537F4F8F4F75
:101520009F4F6093D4017093D5018093D60190931F
:10153000D7018CE3481651046104710409F455C1C4
:1015400008F062C0ECE04E1651046104710409F425
:1015500025C1F0E34F1651046104710409F4D6C0AB
:1015600083E0481651046104710409F05BC00E94D5
:101570004C0384E0882E912C82E10E948002080FA7
:10158000191F80E10E948002E80EF91E83E10E948B
:101590008002C80ED91E81E10E948002A80EB91EE9
:1015A000E1E08E1A910841F7CA14DB0409F46DC01A
:1015B0000E151F0509F469C0C701801B910B181691
:1015C00019060CF015C18CE00E94F801019709F092
:1015D0000FC10E151F050CF00BC18CE00E94F80125
:1015E000019709F005C10E949F0281114EC082E659
:1015F00090E00E94450382E10E9480028C0180E11C
:101600000E9480027C01E5CF9CEC491651046104E4
:10161000710409F4E3C060F5F0EC4F165104610465
:101620007104D1F119A24E01F1E28F0E911CC30198
:10163000B2012AE030E040E050E00E943D0E290176
:101640003A01605DF40162934F0141145104610459
:10165000710469F7309719F0CF010E94030683E205
:1016600091E00E9403068FE291E00E94030639C0D8
:1016700080EF481651046104710409F46AC09CEFBC
:10168000491651046104710469F60E94BB070E9467
:1016900010063092D30125C08AE00E94F80101971C
:1016A00009F0A0C00E9492022B013C010E9492020C
:1016B00064197509860997096436710581059105D4
:1016C00070F48AE00E94F801019749F442E650E084
:1016D0006BE070E087E090E00E940503E7CF109296
:1016E000D3011092790210927A0210927B0210922A
:1016F0007C0280E090E0892B09F4E9CE0E948E0103
:10170000882309F4E4CE0E940000E1CE89E00E9423
:10171000F801019709F066C00E9492022B013C017A
:101720000E94920264197509860997096436710549
:1017300081059105A0F689E00E94F801019779F6EC
:1017400042E650E063E070E087E090E00E9405032D
:10175000E7CF8DE00E94F801019709F043C00E9495
:1017600092022B013C010E949202641975098609BC
:101770009709643671058105910508F0B0CF8DE0B9
:101780000E94F801019709F0AACF42E650E06BE011
:1017900070E088E090E00E940503E5CF8CE00E94B5
:1017A000F8010197F9F40E9492022B013C010E947A
:1017B00092026419750986099709643671058105D5
:1017C000910508F08CCF8CE00E94F801019709F098
:1017D00086CF82E690E00E944503E9CF1092D301C4
:1017E0000E944C030E94F8027CCF1092D301FACFE2
:1017F000C8018E199F091816190614F58DE00E946C
:10180000F8010197E9F4E016F106D4F48DE00E94A6
:10181000F8010197A9F40E949F02811136CF42E698
:1018200050E06BE070E088E090E00E94050382E108
:101830000E9480028C0180E10E9480027C01E3CF43
:10184000C6018A199B091816190614F589E00E9429
:10185000F8010197E9F4AC14BD04D4F489E00E94C6
:10186000F8010197A9F40E949F0281110ECF42E670
:1018700050E063E070E087E090E00E94050381E1C2
:101880000E9480025C0183E10E9480026C01E3CF30
:10189000C5018C199D09181619060CF0F6CE8AE0C0
:1018A0000E94F801019709F0F0CEAC14BD040CF0D1
:1018B000ECCE8AE00E94F801019709F0E6CE8AE0BA
:1018C0000E94F801019789F70E949F028111DDCEE5
:1018D00042E650E06BE070E087E090E00E94050394
:1018E00081E10E9480025C0183E10E9480026C0120
:1018F000DCCF83E10E9480024C0182E10E948002E1
:10190000BC018091D301882339F1680D791D072E20
:10191000000C880B990B0E941C0D20E030E040E089
:101920005FE30E94800D0E94E40C2091D101309170
:10193000D2012617370784F40E94920268537F4F22
:101940008F4F9F4F6093D4017093D5018093D60140
:101950009093D7010E9410060E9492024090D401F9
:101960005090D5016090D6017090D7014616570669
:101970006806790620F480910E01882319F00E94F0
:10198000F802B7CE30920E01FACFFB01DC0102C0A3
:1019900005900D9241505040D8F70895F999FECF27
:1019A00092BD81BDF89A992780B50895262FF9999F
:1019B000FECF1FBA92BD81BD20BD0FB6F894FA9A32
:1019C000F99A0FBE019608950E94EB0C6894B1112C
:1019D0000C947A0D08950E945F0D88F09F5798F03F
:1019E000B92F9927B751B0F0E1F0660F771F881F24
:1019F000991F1AF0BA95C9F714C0B13091F00E943E
:101A0000790DB1E008950C94790D672F782F882710
:101A1000B85F39F0B93FCCF3869577956795B39564
:101A2000D9F73EF490958095709561957F4F8F4FD3
:101A30009F4F0895E89409C097FB3EF490958095D8
:101A4000709561957F4F8F4F9F4F9923A9F0F92F84
:101A500096E9BB279395F695879577956795B79502
:101A6000F111F8CFFAF4BB0F11F460FF1BC06F5FE8
:101A70007F4F8F4F9F4F16C0882311F096E911C0FA
:101A8000772321F09EE8872F762F05C0662371F01B
:101A900096E8862F70E060E02AF09A95660F771F2F
:101AA000881FDAF7880F9695879597F9089557FD5F
:101AB0009058440F551F59F05F3F71F04795880FBC
:101AC00097FB991F61F09F3F79F087950895121653
:101AD00013061406551FF2CF4695F1DF08C01616FF
:101AE00017061806991FF1CF8695710561050894B0
:101AF0000895E894BB2766277727CB0197F90895C7
:101B00000E94930D0C94040E0E94F60D38F00E9472
:101B1000FD0D20F0952311F00C94ED0D0C94F30DB8
:101B200011240C947A0D0E94570D70F3959FC1F308
:101B3000950F50E0551F629FF001729FBB27F00D7B
:101B4000B11D639FAA27F00DB11DAA1F649F6627D0
:101B5000B00DA11D661F829F2227B00DA11D621F1F
:101B6000739FB00DA11D621F839FA00D611D221FD9
:101B7000749F3327A00D611D231F849F600D211DBD
:101B8000822F762F6A2F11249F5750409AF0F1F040
:101B900088234AF0EE0FFF1FBB1F661F771F881FA9
:101BA00091505040A9F79E3F510580F00C94ED0DE7
:101BB0000C947A0D5F3FE4F3983ED4F386957795C5
:101BC0006795B795F795E7959F5FC1F7FE2B880F4F
:101BD000911D9695879597F9089597F99F6780E8E5
:101BE00070E060E008959FEF80EC089500240A946F
:101BF0001616170618060906089500240A941216E8
:101C00001306140605060895092E0394000C11F41A
:101C1000882352F0BB0F40F4BF2B11F460FF04C0C7
:101C20006F5F7F4F8F4F9F4F0895AA1BBB1B51E1E2
:101C300007C0AA1FBB1FA617B70710F0A61BB70B3C
:101C4000881F991F5A95A9F780959095BC01CD01E1
:101C5000089597FB072E16F4009407D077FD09D05E
:101C60000E94150E07FC05D03EF4909581959F4F7C
:101C70000895709561957F4F0895A1E21A2EAA1BD1
:101C8000BB1BFD010DC0AA1FBB1FEE1FFF1FA2172C
:101C9000B307E407F50720F0A21BB30BE40BF50B29
:101CA000661F771F881F991F1A9469F760957095B2
:101CB000809590959B01AC01BD01CF010895EE0F79
:0E1CC000FF1F0590F491E02D0994F894FFCFDA
:101CCE0062000F0019009E029E02FBFF3700013CCE
:101CDE0000000000002101A201C2006E01F300D13C
:101CEE0000E5002D3E2020556E6B6E6F776E000D59
:021CFE000A00DA
:00000001FF
